:020000040000FA
:10000000A421A001A101A201A301A401003030217B
:100010000C3071210130712111223821A001A2017F
:10002000A301A4012B08A1002108A2003330210262
:10003000031C1E283330A102A00A14282208A2079C
:100040002208A4000A302202031C2A280A30A20235
:10005000A30A2028003020020319AA280130200218
:100060000319AC28023020020319AE280330200205
:100070000319B028043020020319B22805302002E9
:100080000319B428063020020319B62807302002CD
:100090000319B828083020020319BA2809302002B1
:1000A0000319BC282E305A21003023020319BE2820
:1000B000013023020319C028023023020319C22889
:1000C000033023020319C428043023020319C6286D
:1000D000053023020319C828063023020319CA2851
:1000E000073023020319CC28083023020319CE2835
:1000F000093023020319D028003024020319D22822
:10010000013024020319D428023024020319D6280E
:10011000033024020319D828043024020319DA28F2
:10012000053024020319DC28063024020319DE28D6
:10013000073024020319E028083024020319E228BA
:10014000093024020319E428203056305A21323075
:10015000E6200A28272252283D22522853225228DC
:10016000692252287F22522895225228AB225228F7
:10017000C1225228D7225228ED22522827227C2839
:100180003D227C2853227C2869227C287F227C28DF
:1001900095227C28AB227C28C1227C28D7227C286F
:1001A000ED227C282722A4283D22A4285322A4281B
:1001B0006922A4287F22A4289522A428AB22A4285F
:1001C000C122A428D722A428ED22A428A5001130FA
:1001D000A6003A30A70000000000A70BEB28A60BF2
:1001E000E928A50BE7280800A500FA30A600FA3098
:1001F000A7001330A8000000A80BFB28A70BF928C4
:10020000A60BF728A50BF528080082073F34063413
:100210005B344F3466346D347D3407347F346F344F
:10022000820740347934243430341934123402349F
:10023000783400341034A901A90B1C29AA0B1C29FD
:1002400008008230AA001B211B2108002121212146
:10025000080026212621262108002921292108001D
:10026000AB00AB0DAB0D2B0D383981389F0008006A
:100270000130E6201F151F1D3B291E08AB0008009A
:100280000130E6201F151F1D432983169E0D9E0D6C
:100290009E0D1E0883120339AB001E08AC009E0D94
:1002A0009E0D1E08FC39AB04AC0DAC0D2C0D0339B2
:1002B000AC000800B100AD0084212D08F0398800A1
:1002C0000811881500008814000088102D0EF039E0
:1002D0008800081188150000881400008810310873
:1002E0000800AD0084212D08F0398800081188111C
:1002F00000008814000088102D0EF03988000000DE
:10030000881400008810080083160313F03088005A
:1003100083120313881108150000881400000808D0
:100320008810F039AE00000088140000080E881014
:100330000F39AE04AE1B8429081183160313003055
:100340008800831203130800831203138810081116
:1003500088110F308800831603130F30880088102F
:1003600008118811831203135030AA001B2130306A
:10037000880000008814000088101830AA001B2193
:100380003030880000008814000088103030880069
:1003900000008814000088100130AA001B212030C2
:1003A00088000000881400008810283071210F3068
:1003B00071210130712106307121803071210800D6
:1003C000820756346F346C34743461346A34653463
:1003D0003A342034FF3482073034FF34820731341A
:1003E000FF3482073234FF3482073334FF3482070C
:1003F0003434FF3482073534FF3482073634FF3417
:1004000082073734FF3482073834FF3482073934A7
:10041000FF348207FF348207FF348207FF348207EC
:10042000FF340030B4003408B20001308A00E030FC
:10043000013E320703188A0A3208E021B300FF3078
:10044000330203195B2B33085A21B40A132A0030F4
:10045000B4003408B20001308A00EB30013E3207AC
:1004600003188A0A3208EB21B300FF303302031964
:100470005B2B33085A21B40A292A0030B40034080F
:10048000B20001308A00EE30013E320703188A0ABA
:100490003208EE21B300FF30330203195B2B33081F
:1004A0005A21B40A3F2A0030B4003408B2000130A7
:1004B0008A00F130013E320703188A0A3208F1211E
:1004C000B300FF30330203195B2B33085A21B40AFF
:1004D000552A0030B4003408B20001308A00F430EC
:1004E000013E320703188A0A3208F421B300FF30B4
:1004F000330203195B2B33085A21B40A6B2A0030EC
:10050000B4003408B20001308A00F730013E3207EF
:1005100003188A0A3208F721B300FF3033020319A7
:100520005B2B33085A21B40A812A0030B400340806
:10053000B20001308A00FA30013E320703188A0AFD
:100540003208FA21B300FF30330203195B2B330862
:100550005A21B40A972A0030B4003408B20001309E
:100560008A00FD30013E320703188A0A3208FD2155
:10057000B300FF30330203195B2B33085A21B40A4E
:10058000AD2A0030B4003408B20002308A000030D6
:10059000013E320703188A0A32080022B300FF30F6
:1005A000330203195B2B33085A21B40AC32A0030E3
:1005B000B4003408B20002308A000330013E320732
:1005C00003188A0A32080322B300FF3033020319EA
:1005D0005B2B33085A21B40AD92A0030B4003408FE
:1005E000B20002308A000630013E320703188A0A40
:1005F00032080622B300FF30330203195B2B3308A5
:100600005A21B40AEF2A0030B4003408B200023094
:100610008A000930013E320703188A0A320809228B
:10062000B300FF30330203195B2B33085A21B40A9D
:10063000052B0030B4003408B20002308A000B30C1
:10064000013E320703188A0A32080B22B300FF303A
:10065000330203195B2B33085A21B40A1B2B0030D9
:10066000B4003408B20002308A000D30013E320777
:1006700003188A0A32080D22B300FF30330203192F
:100680005B2B33085A21B40A312B0030B4003408F4
:10069000B20002308A000F30013E320703188A0A86
:1006A00032080F22B300FF30330203195B2B3308EB
:0806B0005A21B40A472B08008F
:02400E00323F3F
:00000001FF
