:020000040000FA
:10000000E2204130F820013012203130F820013058
:1000100012204230F820013012203230F820013016
:1000200012200128A0001130A1003A30A2000000E7
:100030000000A20B1728A10B1528A00B13280800FD
:10004000A000FA30A100FA30A2001330A300000093
:10005000A30B2728A20B2528A10B2328A00B2128BE
:10006000080082073F3406345B344F3466346D3405
:100070007D3407347F346F3482074034793424343C
:100080003034193412340234783400341034A4017A
:10009000A40B4828A50B482808008230A50047205B
:1000A000472008004D204D200800522052205220A9
:1000B0000800552055200800AA00A6008620260822
:1000C000F039880008118815000088140000881095
:1000D000260EF039880008118815000088140000E9
:1000E00088102A080800A60086202608F039880013
:1000F000081188110000881400008810260EF039BD
:10010000880000008814000088100800831603137C
:10011000F03088008312031388110815000088143A
:10012000000008088810F039A700000088140000BB
:10013000080E88100F39A704A71B862808118316FC
:100140000313003088008312031308008312031383
:100150008810081188110F308800831603130F30A0
:100160008800881008118811831203135030A500ED
:1001700047203030880000008814000088101830B4
:10018000A500472030308800000088140000881047
:100190003030880000008814000088100130A5006D
:1001A0004720203088000000881400008810283084
:1001B00073200F307320013073200630732080309D
:1001C000732008008316871707138312080008306E
:1001D000AB00871BE9280C210F210310871B031498
:1001E000AC0C0C21AB0BED2809212C080800303E8B
:1001F000AC000830AB0007130C21AC0C031C022927
:100200000717032907130C21AB0BFD28071709213A
:1002100008000C210C2108000F210F210800533089
:08022000AD00AD0B112908002F
:02400E00323F3F
:00000001FF
