:020000040000FA
:020000000528D1
:080008002F2883160313860163
:100010008701880183120313A001A101A2018601B7
:1000200000306120870088008C2020086120870034
:10003000210861208800A00A0A3020020319232821
:100040000130502015280030A000A10A0A302102FA
:1000500003192B2820280030A000A1002028A20A84
:100060007D30220203193A28FA30220203193E2871
:100070009A200900FF3086009A2009008601A2011B
:100080009A200900A3001130A4003A30A500000016
:100090000000A50B4728A40B4528A30B4328080004
:1000A000A300FA30A400FA30A5001330A600000027
:1000B000A60B5728A50B5528A40B5328A30B512892
:1000C000080082073F3406345B344F3466346D34A5
:1000D0007D3407347F346F348207403479342434DC
:1000E0003034193412340234783400341034A70117
:1000F000A70B7828A80B782808008230A800772062
:10010000772008007D207D20080082208220822028
:10011000080085208520080083160313D63081004F
:100120008B168B17831203130B11D930810001300A
:0C013000502008000B11D930810008009D
:02400E00323F3F
:00000001FF
